{
  "_format": "hh-sol-artifact-1",
  "contractName": "TokenFactory",
  "sourceName": "contracts/TokenFactory.sol",
  "abi": [
    {
      "inputs": [],
      "stateMutability": "nonpayable",
      "type": "constructor"
    },
    {
      "inputs": [
        {
          "internalType": "address",
          "name": "owner",
          "type": "address"
        }
      ],
      "name": "OwnableInvalidOwner",
      "type": "error"
    },
    {
      "inputs": [
        {
          "internalType": "address",
          "name": "account",
          "type": "address"
        }
      ],
      "name": "OwnableUnauthorizedAccount",
      "type": "error"
    },
    {
      "anonymous": false,
      "inputs": [
        {
          "indexed": true,
          "internalType": "address",
          "name": "previousOwner",
          "type": "address"
        },
        {
          "indexed": true,
          "internalType": "address",
          "name": "newOwner",
          "type": "address"
        }
      ],
      "name": "OwnershipTransferred",
      "type": "event"
    },
    {
      "anonymous": false,
      "inputs": [
        {
          "indexed": false,
          "internalType": "address",
          "name": "tokenAddress",
          "type": "address"
        }
      ],
      "name": "TokenCreated",
      "type": "event"
    },
    {
      "inputs": [
        {
          "internalType": "string",
          "name": "_name",
          "type": "string"
        },
        {
          "internalType": "string",
          "name": "_ticker",
          "type": "string"
        }
      ],
      "name": "createToken",
      "outputs": [
        {
          "internalType": "address",
          "name": "",
          "type": "address"
        }
      ],
      "stateMutability": "nonpayable",
      "type": "function"
    },
    {
      "inputs": [
        {
          "internalType": "uint256",
          "name": "",
          "type": "uint256"
        }
      ],
      "name": "createdTokens",
      "outputs": [
        {
          "internalType": "address",
          "name": "",
          "type": "address"
        }
      ],
      "stateMutability": "view",
      "type": "function"
    },
    {
      "inputs": [],
      "name": "getTokens",
      "outputs": [
        {
          "internalType": "address[]",
          "name": "",
          "type": "address[]"
        }
      ],
      "stateMutability": "view",
      "type": "function"
    },
    {
      "inputs": [],
      "name": "numTokens",
      "outputs": [
        {
          "internalType": "uint256",
          "name": "",
          "type": "uint256"
        }
      ],
      "stateMutability": "view",
      "type": "function"
    },
    {
      "inputs": [],
      "name": "owner",
      "outputs": [
        {
          "internalType": "address",
          "name": "",
          "type": "address"
        }
      ],
      "stateMutability": "view",
      "type": "function"
    },
    {
      "inputs": [],
      "name": "renounceOwnership",
      "outputs": [],
      "stateMutability": "nonpayable",
      "type": "function"
    },
    {
      "inputs": [
        {
          "internalType": "address",
          "name": "newOwner",
          "type": "address"
        }
      ],
      "name": "transferOwnership",
      "outputs": [],
      "stateMutability": "nonpayable",
      "type": "function"
    }
  ],
  "bytecode": "0x608060405234801561001057600080fd5b5033600073ffffffffffffffffffffffffffffffffffffffff168173ffffffffffffffffffffffffffffffffffffffff16036100845760006040517f1e4fbdf700000000000000000000000000000000000000000000000000000000815260040161007b919061019e565b60405180910390fd5b6100938161009960201b60201c565b506101b9565b60008060009054906101000a900473ffffffffffffffffffffffffffffffffffffffff169050816000806101000a81548173ffffffffffffffffffffffffffffffffffffffff021916908373ffffffffffffffffffffffffffffffffffffffff1602179055508173ffffffffffffffffffffffffffffffffffffffff168173ffffffffffffffffffffffffffffffffffffffff167f8be0079c531659141344cd1fd0a4f28419497f9722a3daafe3b4186f6b6457e060405160405180910390a35050565b600073ffffffffffffffffffffffffffffffffffffffff82169050919050565b60006101888261015d565b9050919050565b6101988161017d565b82525050565b60006020820190506101b3600083018461018f565b92915050565b613942806101c86000396000f3fe608060405234801561001057600080fd5b506004361061007d5760003560e01c80638e499bcf1161005b5780638e499bcf146100da578063aa6ca808146100f8578063d782d64714610116578063f2fde38b146101465761007d565b80632f2f2d5614610082578063715018a6146100b25780638da5cb5b146100bc575b600080fd5b61009c600480360381019061009791906105be565b610162565b6040516100a99190610680565b60405180910390f35b6100ba610252565b005b6100c4610266565b6040516100d19190610680565b60405180910390f35b6100e261028f565b6040516100ef91906106b4565b60405180910390f35b61010061029c565b60405161010d919061078d565b60405180910390f35b610130600480360381019061012b91906107db565b61032a565b60405161013d9190610680565b60405180910390f35b610160600480360381019061015b9190610834565b610369565b005b600061016c6103ef565b6000338686868660405161017f90610542565b61018d9594939291906108bf565b604051809103906000f0801580156101a9573d6000803e3d6000fd5b5090506001819080600181540180825580915050600190039060005260206000200160009091909190916101000a81548173ffffffffffffffffffffffffffffffffffffffff021916908373ffffffffffffffffffffffffffffffffffffffff1602179055507f2e2b3f61b70d2d131b2a807371103cc98d51adcaa5e9a8f9c32658ad8426e74e8160405161023e9190610680565b60405180910390a180915050949350505050565b61025a6103ef565b6102646000610476565b565b60008060009054906101000a900473ffffffffffffffffffffffffffffffffffffffff16905090565b6000600180549050905090565b6060600180548060200260200160405190810160405280929190818152602001828054801561032057602002820191906000526020600020905b8160009054906101000a900473ffffffffffffffffffffffffffffffffffffffff1673ffffffffffffffffffffffffffffffffffffffff16815260200190600101908083116102d6575b5050505050905090565b6001818154811061033a57600080fd5b906000526020600020016000915054906101000a900473ffffffffffffffffffffffffffffffffffffffff1681565b6103716103ef565b600073ffffffffffffffffffffffffffffffffffffffff168173ffffffffffffffffffffffffffffffffffffffff16036103e35760006040517f1e4fbdf70000000000000000000000000000000000000000000000000000000081526004016103da9190610680565b60405180910390fd5b6103ec81610476565b50565b6103f761053a565b73ffffffffffffffffffffffffffffffffffffffff16610415610266565b73ffffffffffffffffffffffffffffffffffffffff16146104745761043861053a565b6040517f118cdaa700000000000000000000000000000000000000000000000000000000815260040161046b9190610680565b60405180910390fd5b565b60008060009054906101000a900473ffffffffffffffffffffffffffffffffffffffff169050816000806101000a81548173ffffffffffffffffffffffffffffffffffffffff021916908373ffffffffffffffffffffffffffffffffffffffff1602179055508173ffffffffffffffffffffffffffffffffffffffff168173ffffffffffffffffffffffffffffffffffffffff167f8be0079c531659141344cd1fd0a4f28419497f9722a3daafe3b4186f6b6457e060405160405180910390a35050565b600033905090565b6130048061090983390190565b600080fd5b600080fd5b600080fd5b600080fd5b600080fd5b60008083601f84011261057e5761057d610559565b5b8235905067ffffffffffffffff81111561059b5761059a61055e565b5b6020830191508360018202830111156105b7576105b6610563565b5b9250929050565b600080600080604085870312156105d8576105d761054f565b5b600085013567ffffffffffffffff8111156105f6576105f5610554565b5b61060287828801610568565b9450945050602085013567ffffffffffffffff81111561062557610624610554565b5b61063187828801610568565b925092505092959194509250565b600073ffffffffffffffffffffffffffffffffffffffff82169050919050565b600061066a8261063f565b9050919050565b61067a8161065f565b82525050565b60006020820190506106956000830184610671565b92915050565b6000819050919050565b6106ae8161069b565b82525050565b60006020820190506106c960008301846106a5565b92915050565b600081519050919050565b600082825260208201905092915050565b6000819050602082019050919050565b6107048161065f565b82525050565b600061071683836106fb565b60208301905092915050565b6000602082019050919050565b600061073a826106cf565b61074481856106da565b935061074f836106eb565b8060005b83811015610780578151610767888261070a565b975061077283610722565b925050600181019050610753565b5085935050505092915050565b600060208201905081810360008301526107a7818461072f565b905092915050565b6107b88161069b565b81146107c357600080fd5b50565b6000813590506107d5816107af565b92915050565b6000602082840312156107f1576107f061054f565b5b60006107ff848285016107c6565b91505092915050565b6108118161065f565b811461081c57600080fd5b50565b60008135905061082e81610808565b92915050565b60006020828403121561084a5761084961054f565b5b60006108588482850161081f565b91505092915050565b600082825260208201905092915050565b82818337600083830152505050565b6000601f19601f8301169050919050565b600061089e8385610861565b93506108ab838584610872565b6108b483610881565b840190509392505050565b60006060820190506108d46000830188610671565b81810360208301526108e7818688610892565b905081810360408301526108fc818486610892565b9050969550505050505056fe61016060405234801561001157600080fd5b5060405161300438038061300483398181016040528101906100339190610965565b3382806040518060400160405280600181526020017f31000000000000000000000000000000000000000000000000000000000000008152508585816003908161007d9190610c11565b50806004908161008d9190610c11565b5050506100a460058361020e60201b90919060201c565b61012081815250506100c060068261020e60201b90919060201c565b6101408181525050818051906020012060e08181525050808051906020012061010081815250504660a081815250506100fd61025e60201b60201c565b608081815250503073ffffffffffffffffffffffffffffffffffffffff1660c08173ffffffffffffffffffffffffffffffffffffffff1681525050505050600073ffffffffffffffffffffffffffffffffffffffff168173ffffffffffffffffffffffffffffffffffffffff16036101ad5760006040517f1e4fbdf70000000000000000000000000000000000000000000000000000000081526004016101a49190610cf2565b60405180910390fd5b6101bc816102b960201b60201c565b506101f8836101cf61037f60201b60201c565b600a6101db9190610e7c565b6602d79883d200006101ed9190610ec7565b61038860201b60201c565b61020661041060201b60201c565b50505061110d565b6000602083511015610230576102298361043060201b60201c565b9050610258565b826102408361049860201b60201c565b600001908161024f9190610c11565b5060ff60001b90505b92915050565b60007f8b73c3c69bb8fe3d512ecc4cf759cc79239f7b179b0ffacaa9a75d522b39400f60e05161010051463060405160200161029e959493929190610f31565b60405160208183030381529060405280519060200120905090565b6000600860009054906101000a900473ffffffffffffffffffffffffffffffffffffffff16905081600860006101000a81548173ffffffffffffffffffffffffffffffffffffffff021916908373ffffffffffffffffffffffffffffffffffffffff1602179055508173ffffffffffffffffffffffffffffffffffffffff168173ffffffffffffffffffffffffffffffffffffffff167f8be0079c531659141344cd1fd0a4f28419497f9722a3daafe3b4186f6b6457e060405160405180910390a35050565b60006012905090565b600073ffffffffffffffffffffffffffffffffffffffff168273ffffffffffffffffffffffffffffffffffffffff16036103fa5760006040517fec442f050000000000000000000000000000000000000000000000000000000081526004016103f19190610cf2565b60405180910390fd5b61040c600083836104a260201b60201c565b5050565b61041e6106c760201b60201c565b61042e60006102b960201b60201c565b565b600080829050601f8151111561047d57826040517f305a27a90000000000000000000000000000000000000000000000000000000081526004016104749190610fce565b60405180910390fd5b80518161048990611020565b60001c1760001b915050919050565b6000819050919050565b600073ffffffffffffffffffffffffffffffffffffffff168373ffffffffffffffffffffffffffffffffffffffff16036104f45780600260008282546104e89190611087565b925050819055506105c7565b60008060008573ffffffffffffffffffffffffffffffffffffffff1673ffffffffffffffffffffffffffffffffffffffff16815260200190815260200160002054905081811015610580578381836040517fe450d38c000000000000000000000000000000000000000000000000000000008152600401610577939291906110bb565b60405180910390fd5b8181036000808673ffffffffffffffffffffffffffffffffffffffff1673ffffffffffffffffffffffffffffffffffffffff16815260200190815260200160002081905550505b600073ffffffffffffffffffffffffffffffffffffffff168273ffffffffffffffffffffffffffffffffffffffff1603610610578060026000828254039250508190555061065d565b806000808473ffffffffffffffffffffffffffffffffffffffff1673ffffffffffffffffffffffffffffffffffffffff168152602001908152602001600020600082825401925050819055505b8173ffffffffffffffffffffffffffffffffffffffff168373ffffffffffffffffffffffffffffffffffffffff167fddf252ad1be2c89b69c2b068fc378daa952ba7f163c4a11628f55a4df523b3ef836040516106ba91906110f2565b60405180910390a3505050565b6106d561076060201b60201c565b73ffffffffffffffffffffffffffffffffffffffff166106f961076860201b60201c565b73ffffffffffffffffffffffffffffffffffffffff161461075e5761072261076060201b60201c565b6040517f118cdaa70000000000000000000000000000000000000000000000000000000081526004016107559190610cf2565b60405180910390fd5b565b600033905090565b6000600860009054906101000a900473ffffffffffffffffffffffffffffffffffffffff16905090565b6000604051905090565b600080fd5b600080fd5b600073ffffffffffffffffffffffffffffffffffffffff82169050919050565b60006107d1826107a6565b9050919050565b6107e1816107c6565b81146107ec57600080fd5b50565b6000815190506107fe816107d8565b92915050565b600080fd5b600080fd5b6000601f19601f8301169050919050565b7f4e487b7100000000000000000000000000000000000000000000000000000000600052604160045260246000fd5b6108578261080e565b810181811067ffffffffffffffff821117156108765761087561081f565b5b80604052505050565b6000610889610792565b9050610895828261084e565b919050565b600067ffffffffffffffff8211156108b5576108b461081f565b5b6108be8261080e565b9050602081019050919050565b60005b838110156108e95780820151818401526020810190506108ce565b60008484015250505050565b60006109086109038461089a565b61087f565b90508281526020810184848401111561092457610923610809565b5b61092f8482856108cb565b509392505050565b600082601f83011261094c5761094b610804565b5b815161095c8482602086016108f5565b91505092915050565b60008060006060848603121561097e5761097d61079c565b5b600061098c868287016107ef565b935050602084015167ffffffffffffffff8111156109ad576109ac6107a1565b5b6109b986828701610937565b925050604084015167ffffffffffffffff8111156109da576109d96107a1565b5b6109e686828701610937565b9150509250925092565b600081519050919050565b7f4e487b7100000000000000000000000000000000000000000000000000000000600052602260045260246000fd5b60006002820490506001821680610a4257607f821691505b602082108103610a5557610a546109fb565b5b50919050565b60008190508160005260206000209050919050565b60006020601f8301049050919050565b600082821b905092915050565b600060088302610abd7fffffffffffffffffffffffffffffffffffffffffffffffffffffffffffffffff82610a80565b610ac78683610a80565b95508019841693508086168417925050509392505050565b6000819050919050565b6000819050919050565b6000610b0e610b09610b0484610adf565b610ae9565b610adf565b9050919050565b6000819050919050565b610b2883610af3565b610b3c610b3482610b15565b848454610a8d565b825550505050565b600090565b610b51610b44565b610b5c818484610b1f565b505050565b5b81811015610b8057610b75600082610b49565b600181019050610b62565b5050565b601f821115610bc557610b9681610a5b565b610b9f84610a70565b81016020851015610bae578190505b610bc2610bba85610a70565b830182610b61565b50505b505050565b600082821c905092915050565b6000610be860001984600802610bca565b1980831691505092915050565b6000610c018383610bd7565b9150826002028217905092915050565b610c1a826109f0565b67ffffffffffffffff811115610c3357610c3261081f565b5b610c3d8254610a2a565b610c48828285610b84565b600060209050601f831160018114610c7b5760008415610c69578287015190505b610c738582610bf5565b865550610cdb565b601f198416610c8986610a5b565b60005b82811015610cb157848901518255600182019150602085019450602081019050610c8c565b86831015610cce5784890151610cca601f891682610bd7565b8355505b6001600288020188555050505b505050505050565b610cec816107c6565b82525050565b6000602082019050610d076000830184610ce3565b92915050565b7f4e487b7100000000000000000000000000000000000000000000000000000000600052601160045260246000fd5b60008160011c9050919050565b6000808291508390505b6001851115610d9357808604811115610d6f57610d6e610d0d565b5b6001851615610d7e5780820291505b8081029050610d8c85610d3c565b9450610d53565b94509492505050565b600082610dac5760019050610e68565b81610dba5760009050610e68565b8160018114610dd05760028114610dda57610e09565b6001915050610e68565b60ff841115610dec57610deb610d0d565b5b8360020a915084821115610e0357610e02610d0d565b5b50610e68565b5060208310610133831016604e8410600b8410161715610e3e5782820a905083811115610e3957610e38610d0d565b5b610e68565b610e4b8484846001610d49565b92509050818404811115610e6257610e61610d0d565b5b81810290505b9392505050565b600060ff82169050919050565b6000610e8782610adf565b9150610e9283610e6f565b9250610ebf7fffffffffffffffffffffffffffffffffffffffffffffffffffffffffffffffff8484610d9c565b905092915050565b6000610ed282610adf565b9150610edd83610adf565b9250828202610eeb81610adf565b91508282048414831517610f0257610f01610d0d565b5b5092915050565b6000819050919050565b610f1c81610f09565b82525050565b610f2b81610adf565b82525050565b600060a082019050610f466000830188610f13565b610f536020830187610f13565b610f606040830186610f13565b610f6d6060830185610f22565b610f7a6080830184610ce3565b9695505050505050565b600082825260208201905092915050565b6000610fa0826109f0565b610faa8185610f84565b9350610fba8185602086016108cb565b610fc38161080e565b840191505092915050565b60006020820190508181036000830152610fe88184610f95565b905092915050565b600081519050919050565b6000819050602082019050919050565b60006110178251610f09565b80915050919050565b600061102b82610ff0565b8261103584610ffb565b90506110408161100b565b925060208210156110805761107b7fffffffffffffffffffffffffffffffffffffffffffffffffffffffffffffffff83602003600802610a80565b831692505b5050919050565b600061109282610adf565b915061109d83610adf565b92508282019050808211156110b5576110b4610d0d565b5b92915050565b60006060820190506110d06000830186610ce3565b6110dd6020830185610f22565b6110ea6040830184610f22565b949350505050565b60006020820190506111076000830184610f22565b92915050565b60805160a05160c05160e051610100516101205161014051611e9d6111676000396000610cc401526000610c89015260006111d9015260006111b801526000610a3701526000610a8d01526000610ab60152611e9d6000f3fe608060405234801561001057600080fd5b50600436106101005760003560e01c80637ecebe0011610097578063a9059cbb11610066578063a9059cbb146102a7578063d505accf146102d7578063dd62ed3e146102f3578063f2fde38b1461032357610100565b80637ecebe001461021757806384b0196e146102475780638da5cb5b1461026b57806395d89b411461028957610100565b8063313ce567116100d3578063313ce567146101a15780633644e515146101bf57806370a08231146101dd578063715018a61461020d57610100565b806306fdde0314610105578063095ea7b31461012357806318160ddd1461015357806323b872dd14610171575b600080fd5b61010d61033f565b60405161011a91906116c6565b60405180910390f35b61013d60048036038101906101389190611781565b6103d1565b60405161014a91906117dc565b60405180910390f35b61015b6103f4565b6040516101689190611806565b60405180910390f35b61018b60048036038101906101869190611821565b6103fe565b60405161019891906117dc565b60405180910390f35b6101a961042d565b6040516101b69190611890565b60405180910390f35b6101c7610436565b6040516101d491906118c4565b60405180910390f35b6101f760048036038101906101f291906118df565b610445565b6040516102049190611806565b60405180910390f35b61021561048d565b005b610231600480360381019061022c91906118df565b6104a1565b60405161023e9190611806565b60405180910390f35b61024f6104b3565b6040516102629796959493929190611a14565b60405180910390f35b61027361055d565b6040516102809190611a98565b60405180910390f35b610291610587565b60405161029e91906116c6565b60405180910390f35b6102c160048036038101906102bc9190611781565b610619565b6040516102ce91906117dc565b60405180910390f35b6102f160048036038101906102ec9190611b0b565b61063c565b005b61030d60048036038101906103089190611bad565b610784565b60405161031a9190611806565b60405180910390f35b61033d600480360381019061033891906118df565b61080b565b005b60606003805461034e90611c1c565b80601f016020809104026020016040519081016040528092919081815260200182805461037a90611c1c565b80156103c75780601f1061039c576101008083540402835291602001916103c7565b820191906000526020600020905b8154815290600101906020018083116103aa57829003601f168201915b5050505050905090565b6000806103dc610891565b90506103e9818585610899565b600191505092915050565b6000600254905090565b600080610409610891565b90506104168582856108ab565b61042185858561093f565b60019150509392505050565b60006012905090565b6000610440610a33565b905090565b60008060008373ffffffffffffffffffffffffffffffffffffffff1673ffffffffffffffffffffffffffffffffffffffff168152602001908152602001600020549050919050565b610495610aea565b61049f6000610b71565b565b60006104ac82610c37565b9050919050565b6000606080600080600060606104c7610c80565b6104cf610cbb565b46306000801b600067ffffffffffffffff8111156104f0576104ef611c4d565b5b60405190808252806020026020018201604052801561051e5781602001602082028036833780820191505090505b507f0f00000000000000000000000000000000000000000000000000000000000000959493929190965096509650965096509650965090919293949596565b6000600860009054906101000a900473ffffffffffffffffffffffffffffffffffffffff16905090565b60606004805461059690611c1c565b80601f01602080910402602001604051908101604052809291908181526020018280546105c290611c1c565b801561060f5780601f106105e45761010080835404028352916020019161060f565b820191906000526020600020905b8154815290600101906020018083116105f257829003601f168201915b5050505050905090565b600080610624610891565b905061063181858561093f565b600191505092915050565b8342111561068157836040517f627913020000000000000000000000000000000000000000000000000000000081526004016106789190611806565b60405180910390fd5b60007f6e71edae12b1b97f4d1f60370fef10105fa2faae0126114a169c64845d6126c98888886106b08c610cf6565b896040516020016106c696959493929190611c7c565b60405160208183030381529060405280519060200120905060006106e982610d4d565b905060006106f982878787610d67565b90508973ffffffffffffffffffffffffffffffffffffffff168173ffffffffffffffffffffffffffffffffffffffff161461076d57808a6040517f4b800e46000000000000000000000000000000000000000000000000000000008152600401610764929190611cdd565b60405180910390fd5b6107788a8a8a610899565b50505050505050505050565b6000600160008473ffffffffffffffffffffffffffffffffffffffff1673ffffffffffffffffffffffffffffffffffffffff16815260200190815260200160002060008373ffffffffffffffffffffffffffffffffffffffff1673ffffffffffffffffffffffffffffffffffffffff16815260200190815260200160002054905092915050565b610813610aea565b600073ffffffffffffffffffffffffffffffffffffffff168173ffffffffffffffffffffffffffffffffffffffff16036108855760006040517f1e4fbdf700000000000000000000000000000000000000000000000000000000815260040161087c9190611a98565b60405180910390fd5b61088e81610b71565b50565b600033905090565b6108a68383836001610d97565b505050565b60006108b78484610784565b90507fffffffffffffffffffffffffffffffffffffffffffffffffffffffffffffffff81146109395781811015610929578281836040517ffb8f41b200000000000000000000000000000000000000000000000000000000815260040161092093929190611d06565b60405180910390fd5b61093884848484036000610d97565b5b50505050565b600073ffffffffffffffffffffffffffffffffffffffff168373ffffffffffffffffffffffffffffffffffffffff16036109b15760006040517f96c6fd1e0000000000000000000000000000000000000000000000000000000081526004016109a89190611a98565b60405180910390fd5b600073ffffffffffffffffffffffffffffffffffffffff168273ffffffffffffffffffffffffffffffffffffffff1603610a235760006040517fec442f05000000000000000000000000000000000000000000000000000000008152600401610a1a9190611a98565b60405180910390fd5b610a2e838383610f6e565b505050565b60007f000000000000000000000000000000000000000000000000000000000000000073ffffffffffffffffffffffffffffffffffffffff163073ffffffffffffffffffffffffffffffffffffffff16148015610aaf57507f000000000000000000000000000000000000000000000000000000000000000046145b15610adc577f00000000000000000000000000000000000000000000000000000000000000009050610ae7565b610ae4611193565b90505b90565b610af2610891565b73ffffffffffffffffffffffffffffffffffffffff16610b1061055d565b73ffffffffffffffffffffffffffffffffffffffff1614610b6f57610b33610891565b6040517f118cdaa7000000000000000000000000000000000000000000000000000000008152600401610b669190611a98565b60405180910390fd5b565b6000600860009054906101000a900473ffffffffffffffffffffffffffffffffffffffff16905081600860006101000a81548173ffffffffffffffffffffffffffffffffffffffff021916908373ffffffffffffffffffffffffffffffffffffffff1602179055508173ffffffffffffffffffffffffffffffffffffffff168173ffffffffffffffffffffffffffffffffffffffff167f8be0079c531659141344cd1fd0a4f28419497f9722a3daafe3b4186f6b6457e060405160405180910390a35050565b6000600760008373ffffffffffffffffffffffffffffffffffffffff1673ffffffffffffffffffffffffffffffffffffffff168152602001908152602001600020549050919050565b6060610cb660057f000000000000000000000000000000000000000000000000000000000000000061122990919063ffffffff16565b905090565b6060610cf160067f000000000000000000000000000000000000000000000000000000000000000061122990919063ffffffff16565b905090565b6000600760008373ffffffffffffffffffffffffffffffffffffffff1673ffffffffffffffffffffffffffffffffffffffff1681526020019081526020016000206000815480929190600101919050559050919050565b6000610d60610d5a610a33565b836112d9565b9050919050565b600080600080610d798888888861131a565b925092509250610d89828261140e565b829350505050949350505050565b600073ffffffffffffffffffffffffffffffffffffffff168473ffffffffffffffffffffffffffffffffffffffff1603610e095760006040517fe602df05000000000000000000000000000000000000000000000000000000008152600401610e009190611a98565b60405180910390fd5b600073ffffffffffffffffffffffffffffffffffffffff168373ffffffffffffffffffffffffffffffffffffffff1603610e7b5760006040517f94280d62000000000000000000000000000000000000000000000000000000008152600401610e729190611a98565b60405180910390fd5b81600160008673ffffffffffffffffffffffffffffffffffffffff1673ffffffffffffffffffffffffffffffffffffffff16815260200190815260200160002060008573ffffffffffffffffffffffffffffffffffffffff1673ffffffffffffffffffffffffffffffffffffffff168152602001908152602001600020819055508015610f68578273ffffffffffffffffffffffffffffffffffffffff168473ffffffffffffffffffffffffffffffffffffffff167f8c5be1e5ebec7d5bd14f71427d1e84f3dd0314c0f7b2291e5b200ac8c7c3b92584604051610f5f9190611806565b60405180910390a35b50505050565b600073ffffffffffffffffffffffffffffffffffffffff168373ffffffffffffffffffffffffffffffffffffffff1603610fc0578060026000828254610fb49190611d6c565b92505081905550611093565b60008060008573ffffffffffffffffffffffffffffffffffffffff1673ffffffffffffffffffffffffffffffffffffffff1681526020019081526020016000205490508181101561104c578381836040517fe450d38c00000000000000000000000000000000000000000000000000000000815260040161104393929190611d06565b60405180910390fd5b8181036000808673ffffffffffffffffffffffffffffffffffffffff1673ffffffffffffffffffffffffffffffffffffffff16815260200190815260200160002081905550505b600073ffffffffffffffffffffffffffffffffffffffff168273ffffffffffffffffffffffffffffffffffffffff16036110dc5780600260008282540392505081905550611129565b806000808473ffffffffffffffffffffffffffffffffffffffff1673ffffffffffffffffffffffffffffffffffffffff168152602001908152602001600020600082825401925050819055505b8173ffffffffffffffffffffffffffffffffffffffff168373ffffffffffffffffffffffffffffffffffffffff167fddf252ad1be2c89b69c2b068fc378daa952ba7f163c4a11628f55a4df523b3ef836040516111869190611806565b60405180910390a3505050565b60007f8b73c3c69bb8fe3d512ecc4cf759cc79239f7b179b0ffacaa9a75d522b39400f7f00000000000000000000000000000000000000000000000000000000000000007f0000000000000000000000000000000000000000000000000000000000000000463060405160200161120e959493929190611da0565b60405160208183030381529060405280519060200120905090565b606060ff60001b83146112465761123f83611572565b90506112d3565b81805461125290611c1c565b80601f016020809104026020016040519081016040528092919081815260200182805461127e90611c1c565b80156112cb5780601f106112a0576101008083540402835291602001916112cb565b820191906000526020600020905b8154815290600101906020018083116112ae57829003601f168201915b505050505090505b92915050565b60006040517f190100000000000000000000000000000000000000000000000000000000000081528360028201528260228201526042812091505092915050565b60008060007f7fffffffffffffffffffffffffffffff5d576e7357a4501ddfe92f46681b20a08460001c111561135a576000600385925092509250611404565b60006001888888886040516000815260200160405260405161137f9493929190611df3565b6020604051602081039080840390855afa1580156113a1573d6000803e3d6000fd5b505050602060405103519050600073ffffffffffffffffffffffffffffffffffffffff168173ffffffffffffffffffffffffffffffffffffffff16036113f557600060016000801b93509350935050611404565b8060008060001b935093509350505b9450945094915050565b6000600381111561142257611421611e38565b5b82600381111561143557611434611e38565b5b031561156e576001600381111561144f5761144e611e38565b5b82600381111561146257611461611e38565b5b03611499576040517ff645eedf00000000000000000000000000000000000000000000000000000000815260040160405180910390fd5b600260038111156114ad576114ac611e38565b5b8260038111156114c0576114bf611e38565b5b03611505578060001c6040517ffce698f70000000000000000000000000000000000000000000000000000000081526004016114fc9190611806565b60405180910390fd5b60038081111561151857611517611e38565b5b82600381111561152b5761152a611e38565b5b0361156d57806040517fd78bce0c00000000000000000000000000000000000000000000000000000000815260040161156491906118c4565b60405180910390fd5b5b5050565b6060600061157f836115e6565b90506000602067ffffffffffffffff81111561159e5761159d611c4d565b5b6040519080825280601f01601f1916602001820160405280156115d05781602001600182028036833780820191505090505b5090508181528360208201528092505050919050565b60008060ff8360001c169050601f81111561162d576040517fb3512b0c00000000000000000000000000000000000000000000000000000000815260040160405180910390fd5b80915050919050565b600081519050919050565b600082825260208201905092915050565b60005b83811015611670578082015181840152602081019050611655565b60008484015250505050565b6000601f19601f8301169050919050565b600061169882611636565b6116a28185611641565b93506116b2818560208601611652565b6116bb8161167c565b840191505092915050565b600060208201905081810360008301526116e0818461168d565b905092915050565b600080fd5b600073ffffffffffffffffffffffffffffffffffffffff82169050919050565b6000611718826116ed565b9050919050565b6117288161170d565b811461173357600080fd5b50565b6000813590506117458161171f565b92915050565b6000819050919050565b61175e8161174b565b811461176957600080fd5b50565b60008135905061177b81611755565b92915050565b60008060408385031215611798576117976116e8565b5b60006117a685828601611736565b92505060206117b78582860161176c565b9150509250929050565b60008115159050919050565b6117d6816117c1565b82525050565b60006020820190506117f160008301846117cd565b92915050565b6118008161174b565b82525050565b600060208201905061181b60008301846117f7565b92915050565b60008060006060848603121561183a576118396116e8565b5b600061184886828701611736565b935050602061185986828701611736565b925050604061186a8682870161176c565b9150509250925092565b600060ff82169050919050565b61188a81611874565b82525050565b60006020820190506118a56000830184611881565b92915050565b6000819050919050565b6118be816118ab565b82525050565b60006020820190506118d960008301846118b5565b92915050565b6000602082840312156118f5576118f46116e8565b5b600061190384828501611736565b91505092915050565b60007fff0000000000000000000000000000000000000000000000000000000000000082169050919050565b6119418161190c565b82525050565b6119508161170d565b82525050565b600081519050919050565b600082825260208201905092915050565b6000819050602082019050919050565b61198b8161174b565b82525050565b600061199d8383611982565b60208301905092915050565b6000602082019050919050565b60006119c182611956565b6119cb8185611961565b93506119d683611972565b8060005b83811015611a075781516119ee8882611991565b97506119f9836119a9565b9250506001810190506119da565b5085935050505092915050565b600060e082019050611a29600083018a611938565b8181036020830152611a3b818961168d565b90508181036040830152611a4f818861168d565b9050611a5e60608301876117f7565b611a6b6080830186611947565b611a7860a08301856118b5565b81810360c0830152611a8a81846119b6565b905098975050505050505050565b6000602082019050611aad6000830184611947565b92915050565b611abc81611874565b8114611ac757600080fd5b50565b600081359050611ad981611ab3565b92915050565b611ae8816118ab565b8114611af357600080fd5b50565b600081359050611b0581611adf565b92915050565b600080600080600080600060e0888a031215611b2a57611b296116e8565b5b6000611b388a828b01611736565b9750506020611b498a828b01611736565b9650506040611b5a8a828b0161176c565b9550506060611b6b8a828b0161176c565b9450506080611b7c8a828b01611aca565b93505060a0611b8d8a828b01611af6565b92505060c0611b9e8a828b01611af6565b91505092959891949750929550565b60008060408385031215611bc457611bc36116e8565b5b6000611bd285828601611736565b9250506020611be385828601611736565b9150509250929050565b7f4e487b7100000000000000000000000000000000000000000000000000000000600052602260045260246000fd5b60006002820490506001821680611c3457607f821691505b602082108103611c4757611c46611bed565b5b50919050565b7f4e487b7100000000000000000000000000000000000000000000000000000000600052604160045260246000fd5b600060c082019050611c9160008301896118b5565b611c9e6020830188611947565b611cab6040830187611947565b611cb860608301866117f7565b611cc560808301856117f7565b611cd260a08301846117f7565b979650505050505050565b6000604082019050611cf26000830185611947565b611cff6020830184611947565b9392505050565b6000606082019050611d1b6000830186611947565b611d2860208301856117f7565b611d3560408301846117f7565b949350505050565b7f4e487b7100000000000000000000000000000000000000000000000000000000600052601160045260246000fd5b6000611d778261174b565b9150611d828361174b565b9250828201905080821115611d9a57611d99611d3d565b5b92915050565b600060a082019050611db560008301886118b5565b611dc260208301876118b5565b611dcf60408301866118b5565b611ddc60608301856117f7565b611de96080830184611947565b9695505050505050565b6000608082019050611e0860008301876118b5565b611e156020830186611881565b611e2260408301856118b5565b611e2f60608301846118b5565b95945050505050565b7f4e487b7100000000000000000000000000000000000000000000000000000000600052602160045260246000fdfea2646970667358221220f5343cfd2d9968e8791822a2c893ca247301a9f580980b601ff95ebc6737d9f464736f6c634300081b0033a2646970667358221220db157612742f40645ffc80b50790ea5d472778f4473c9f1465118c22e0d8420b64736f6c634300081b0033",
  "linkReferences": {},
  "deployedLinkReferences": {}
}